{
  "contractName": "HealthRecords",
  "abi": [
    {
      "anonymous": false,
      "inputs": [
        {
          "indexed": true,
          "internalType": "address",
          "name": "patientAddress",
          "type": "address"
        },
        {
          "indexed": false,
          "internalType": "string",
          "name": "patientId",
          "type": "string"
        },
        {
          "indexed": false,
          "internalType": "string",
          "name": "doctorId",
          "type": "string"
        },
        {
          "indexed": false,
          "internalType": "uint256",
          "name": "timestamp",
          "type": "uint256"
        }
      ],
      "name": "RecordAdded",
      "type": "event"
    },
    {
      "inputs": [
        {
          "internalType": "string",
          "name": "_patientId",
          "type": "string"
        },
        {
          "internalType": "string",
          "name": "_doctorId",
          "type": "string"
        },
        {
          "internalType": "string",
          "name": "_diagnosis",
          "type": "string"
        },
        {
          "internalType": "string",
          "name": "_prescription",
          "type": "string"
        },
        {
          "internalType": "string",
          "name": "_recordHash",
          "type": "string"
        }
      ],
      "name": "addRecord",
      "outputs": [],
      "stateMutability": "nonpayable",
      "type": "function"
    },
    {
      "inputs": [],
      "name": "getMyRecords",
      "outputs": [
        {
          "components": [
            {
              "internalType": "string",
              "name": "patientId",
              "type": "string"
            },
            {
              "internalType": "string",
              "name": "doctorId",
              "type": "string"
            },
            {
              "internalType": "string",
              "name": "diagnosis",
              "type": "string"
            },
            {
              "internalType": "string",
              "name": "prescription",
              "type": "string"
            },
            {
              "internalType": "string",
              "name": "recordHash",
              "type": "string"
            },
            {
              "internalType": "uint256",
              "name": "timestamp",
              "type": "uint256"
            }
          ],
          "internalType": "struct HealthRecords.Record[]",
          "name": "",
          "type": "tuple[]"
        }
      ],
      "stateMutability": "view",
      "type": "function",
      "constant": true
    },
    {
      "inputs": [
        {
          "internalType": "address",
          "name": "_patientAddress",
          "type": "address"
        }
      ],
      "name": "getRecordsByPatient",
      "outputs": [
        {
          "components": [
            {
              "internalType": "string",
              "name": "patientId",
              "type": "string"
            },
            {
              "internalType": "string",
              "name": "doctorId",
              "type": "string"
            },
            {
              "internalType": "string",
              "name": "diagnosis",
              "type": "string"
            },
            {
              "internalType": "string",
              "name": "prescription",
              "type": "string"
            },
            {
              "internalType": "string",
              "name": "recordHash",
              "type": "string"
            },
            {
              "internalType": "uint256",
              "name": "timestamp",
              "type": "uint256"
            }
          ],
          "internalType": "struct HealthRecords.Record[]",
          "name": "",
          "type": "tuple[]"
        }
      ],
      "stateMutability": "view",
      "type": "function",
      "constant": true
    },
    {
      "inputs": [],
      "name": "getRecordCount",
      "outputs": [
        {
          "internalType": "uint256",
          "name": "",
          "type": "uint256"
        }
      ],
      "stateMutability": "view",
      "type": "function",
      "constant": true
    }
  ],
  "bytecode": "0x608060405234801561001057600080fd5b50611283806100206000396000f3fe608060405234801561001057600080fd5b506004361061004c5760003560e01c80632d1814f214610051578063ae68e7761461006d578063ca267f281461009d578063e76637ce146100bb575b600080fd5b61006b60048036038101906100669190610c3b565b6100d9565b005b61008760048036038101906100829190610c12565b61033b565b6040516100949190610f8e565b60405180910390f35b6100a561072a565b6040516100b29190611035565b60405180910390f35b6100c3610773565b6040516100d09190610f8e565b60405180910390f35b84600081511161011e576040517f08c379a000000000000000000000000000000000000000000000000000000000815260040161011590611015565b60405180910390fd5b846000815111610163576040517f08c379a000000000000000000000000000000000000000000000000000000000815260040161015a90611015565b60405180910390fd5b8260008151116101a8576040517f08c379a000000000000000000000000000000000000000000000000000000000815260040161019f90611015565b60405180910390fd5b60006040518060c001604052808a81526020018981526020018881526020018781526020018681526020014281525090506000803373ffffffffffffffffffffffffffffffffffffffff1673ffffffffffffffffffffffffffffffffffffffff168152602001908152602001600020819080600181540180825580915050600190039060005260206000209060060201600090919091909150600082015181600001908051906020019061025d929190610af2565b50602082015181600101908051906020019061027a929190610af2565b506040820151816002019080519060200190610297929190610af2565b5060608201518160030190805190602001906102b4929190610af2565b5060808201518160040190805190602001906102d1929190610af2565b5060a0820151816005015550503373ffffffffffffffffffffffffffffffffffffffff167fabf956e712eb5b9ee34b39c298c8f13b7e3ab5ac61e12fc5edb7ea72325f2aa38a8a4260405161032893929190610fb0565b60405180910390a2505050505050505050565b60608173ffffffffffffffffffffffffffffffffffffffff163373ffffffffffffffffffffffffffffffffffffffff16146103ab576040517f08c379a00000000000000000000000000000000000000000000000000000000081526004016103a290610ff5565b60405180910390fd5b6000808373ffffffffffffffffffffffffffffffffffffffff1673ffffffffffffffffffffffffffffffffffffffff168152602001908152602001600020805480602002602001604051908101604052809291908181526020016000905b8282101561071f57838290600052602060002090600602016040518060c001604052908160008201805461043c90611195565b80601f016020809104026020016040519081016040528092919081815260200182805461046890611195565b80156104b55780601f1061048a576101008083540402835291602001916104b5565b820191906000526020600020905b81548152906001019060200180831161049857829003601f168201915b505050505081526020016001820180546104ce90611195565b80601f01602080910402602001604051908101604052809291908181526020018280546104fa90611195565b80156105475780601f1061051c57610100808354040283529160200191610547565b820191906000526020600020905b81548152906001019060200180831161052a57829003601f168201915b5050505050815260200160028201805461056090611195565b80601f016020809104026020016040519081016040528092919081815260200182805461058c90611195565b80156105d95780601f106105ae576101008083540402835291602001916105d9565b820191906000526020600020905b8154815290600101906020018083116105bc57829003601f168201915b505050505081526020016003820180546105f290611195565b80601f016020809104026020016040519081016040528092919081815260200182805461061e90611195565b801561066b5780601f106106405761010080835404028352916020019161066b565b820191906000526020600020905b81548152906001019060200180831161064e57829003601f168201915b5050505050815260200160048201805461068490611195565b80601f01602080910402602001604051908101604052809291908181526020018280546106b090611195565b80156106fd5780601f106106d2576101008083540402835291602001916106fd565b820191906000526020600020905b8154815290600101906020018083116106e057829003601f168201915b5050505050815260200160058201548152505081526020019060010190610409565b505050509050919050565b60008060003373ffffffffffffffffffffffffffffffffffffffff1673ffffffffffffffffffffffffffffffffffffffff16815260200190815260200160002080549050905090565b60606000803373ffffffffffffffffffffffffffffffffffffffff1673ffffffffffffffffffffffffffffffffffffffff168152602001908152602001600020805480602002602001604051908101604052809291908181526020016000905b82821015610ae957838290600052602060002090600602016040518060c001604052908160008201805461080690611195565b80601f016020809104026020016040519081016040528092919081815260200182805461083290611195565b801561087f5780601f106108545761010080835404028352916020019161087f565b820191906000526020600020905b81548152906001019060200180831161086257829003601f168201915b5050505050815260200160018201805461089890611195565b80601f01602080910402602001604051908101604052809291908181526020018280546108c490611195565b80156109115780601f106108e657610100808354040283529160200191610911565b820191906000526020600020905b8154815290600101906020018083116108f457829003601f168201915b5050505050815260200160028201805461092a90611195565b80601f016020809104026020016040519081016040528092919081815260200182805461095690611195565b80156109a35780601f10610978576101008083540402835291602001916109a3565b820191906000526020600020905b81548152906001019060200180831161098657829003601f168201915b505050505081526020016003820180546109bc90611195565b80601f01602080910402602001604051908101604052809291908181526020018280546109e890611195565b8015610a355780601f10610a0a57610100808354040283529160200191610a35565b820191906000526020600020905b815481529060010190602001808311610a1857829003601f168201915b50505050508152602001600482018054610a4e90611195565b80601f0160208091040260200160405190810160405280929190818152602001828054610a7a90611195565b8015610ac75780601f10610a9c57610100808354040283529160200191610ac7565b820191906000526020600020905b815481529060010190602001808311610aaa57829003601f168201915b50505050508152602001600582015481525050815260200190600101906107d3565b50505050905090565b828054610afe90611195565b90600052602060002090601f016020900481019282610b205760008555610b67565b82601f10610b3957805160ff1916838001178555610b67565b82800160010185558215610b67579182015b82811115610b66578251825591602001919060010190610b4b565b5b509050610b749190610b78565b5090565b5b80821115610b91576000816000905550600101610b79565b5090565b6000610ba8610ba384611081565b611050565b905082815260208101848484011115610bc057600080fd5b610bcb848285611153565b509392505050565b600081359050610be281611236565b92915050565b600082601f830112610bf957600080fd5b8135610c09848260208601610b95565b91505092915050565b600060208284031215610c2457600080fd5b6000610c3284828501610bd3565b91505092915050565b600080600080600060a08688031215610c5357600080fd5b600086013567ffffffffffffffff811115610c6d57600080fd5b610c7988828901610be8565b955050602086013567ffffffffffffffff811115610c9657600080fd5b610ca288828901610be8565b945050604086013567ffffffffffffffff811115610cbf57600080fd5b610ccb88828901610be8565b935050606086013567ffffffffffffffff811115610ce857600080fd5b610cf488828901610be8565b925050608086013567ffffffffffffffff811115610d1157600080fd5b610d1d88828901610be8565b9150509295509295909350565b6000610d368383610ecb565b905092915050565b6000610d49826110c1565b610d5381856110e4565b935083602082028501610d65856110b1565b8060005b85811015610da15784840389528151610d828582610d2a565b9450610d8d836110d7565b925060208a01995050600181019050610d69565b50829750879550505050505092915050565b6000610dbe826110cc565b610dc881856110f5565b9350610dd8818560208601611162565b610de181611225565b840191505092915050565b6000610df7826110cc565b610e018185611106565b9350610e11818560208601611162565b610e1a81611225565b840191505092915050565b6000610e32603683611106565b91507f4163636573732064656e6965643a204f6e6c79207468652070617469656e742060008301527f63616e2076696577207468656972207265636f726473000000000000000000006020830152604082019050919050565b6000610e98601c83611106565b91507f496e70757420737472696e672063616e6e6f7420626520656d707479000000006000830152602082019050919050565b600060c0830160008301518482036000860152610ee88282610db3565b91505060208301518482036020860152610f028282610db3565b91505060408301518482036040860152610f1c8282610db3565b91505060608301518482036060860152610f368282610db3565b91505060808301518482036080860152610f508282610db3565b91505060a0830151610f6560a0860182610f70565b508091505092915050565b610f7981611149565b82525050565b610f8881611149565b82525050565b60006020820190508181036000830152610fa88184610d3e565b905092915050565b60006060820190508181036000830152610fca8186610dec565b90508181036020830152610fde8185610dec565b9050610fed6040830184610f7f565b949350505050565b6000602082019050818103600083015261100e81610e25565b9050919050565b6000602082019050818103600083015261102e81610e8b565b9050919050565b600060208201905061104a6000830184610f7f565b92915050565b6000604051905081810181811067ffffffffffffffff82111715611077576110766111f6565b5b8060405250919050565b600067ffffffffffffffff82111561109c5761109b6111f6565b5b601f19601f8301169050602081019050919050565b6000819050602082019050919050565b600081519050919050565b600081519050919050565b6000602082019050919050565b600082825260208201905092915050565b600082825260208201905092915050565b600082825260208201905092915050565b600061112282611129565b9050919050565b600073ffffffffffffffffffffffffffffffffffffffff82169050919050565b6000819050919050565b82818337600083830152505050565b60005b83811015611180578082015181840152602081019050611165565b8381111561118f576000848401525b50505050565b600060028204905060018216806111ad57607f821691505b602082108114156111c1576111c06111c7565b5b50919050565b7f4e487b7100000000000000000000000000000000000000000000000000000000600052602260045260246000fd5b7f4e487b7100000000000000000000000000000000000000000000000000000000600052604160045260246000fd5b6000601f19601f8301169050919050565b61123f81611117565b811461124a57600080fd5b5056fea2646970667358221220cda96e664b2167cab38e869c856e1989f5edfbeb4f9ffc72e8ea1146cb7e588b64736f6c63430008000033",
  "immutableReferences": {},
  "source": "// SPDX-License-Identifier: MIT\r\npragma solidity ^0.8.0;\r\n\r\ncontract HealthRecords {\r\n    // Structure to hold a single health record\r\n    struct Record {\r\n        string patientId;        // Unique ID for the patient\r\n        string doctorId;         // ID of the doctor who created the record\r\n        string diagnosis;        // Diagnosis or medical condition\r\n        string prescription;     // Prescribed medications or treatments\r\n        string recordHash;       // Hash of the record document (e.g., IPFS hash)\r\n        uint256 timestamp;       // Timestamp of when the record was created\r\n    }\r\n\r\n    // Patient's address to their health records\r\n    mapping(address => Record[]) private records;\r\n\r\n    // Event to log whenever a new health record is added\r\n    event RecordAdded(\r\n        address indexed patientAddress,\r\n        string patientId,\r\n        string doctorId,\r\n        uint256 timestamp\r\n    );\r\n\r\n    // Modifier to ensure valid inputs\r\n    modifier validString(string memory str) {\r\n        require(bytes(str).length > 0, \"Input string cannot be empty\");\r\n        _;\r\n    }\r\n\r\n    // Add a health record for the sender (patient)\r\n    function addRecord(\r\n        string memory _patientId,\r\n        string memory _doctorId,\r\n        string memory _diagnosis,\r\n        string memory _prescription,\r\n        string memory _recordHash\r\n    ) public validString(_patientId) validString(_doctorId) validString(_recordHash) {\r\n        Record memory newRecord = Record({\r\n            patientId: _patientId,\r\n            doctorId: _doctorId,\r\n            diagnosis: _diagnosis,\r\n            prescription: _prescription,\r\n            recordHash: _recordHash,\r\n            timestamp: block.timestamp\r\n        });\r\n        records[msg.sender].push(newRecord);\r\n\r\n        // Emit an event for the added record\r\n        emit RecordAdded(msg.sender, _patientId, _doctorId, block.timestamp);\r\n    }\r\n\r\n    // Retrieve all health records of the sender\r\n    function getMyRecords() public view returns (Record[] memory) {\r\n        return records[msg.sender];\r\n    }\r\n\r\n    // Retrieve health records of a specific patient (only callable by the patient)\r\n    function getRecordsByPatient(address _patientAddress) public view returns (Record[] memory) {\r\n        require(msg.sender == _patientAddress, \"Access denied: Only the patient can view their records\");\r\n        return records[_patientAddress];\r\n    }\r\n\r\n    // Count the number of records a patient has\r\n    function getRecordCount() public view returns (uint256) {\r\n        return records[msg.sender].length;\r\n    }\r\n}\r\n",
  "sourcePath": "C:\\ghidorah\\Health_Record_Management\\contracts\\HealthRecords.sol",
  "compiler": {
    "name": "solc",
    "version": "0.8.0+commit.c7dfd78e.Emscripten.clang"
  },
  "schemaVersion": "3.4.16",
  "updatedAt": "2025-03-25T09:42:31.806Z",
  "networkType": "ethereum",
  "devdoc": {
    "kind": "dev",
    "methods": {},
    "version": 1
  },
  "userdoc": {
    "kind": "user",
    "methods": {},
    "version": 1
  }
}